{
  "_format": "hh3-artifact-1",
  "contractName": "EternamID",
  "sourceName": "contracts/EternamID.sol",
  "abi": [
    {
      "inputs": [
        {
          "internalType": "address",
          "name": "_teamWallet",
          "type": "address"
        },
        {
          "internalType": "address",
          "name": "_usdcAddress",
          "type": "address"
        }
      ],
      "stateMutability": "nonpayable",
      "type": "constructor"
    },
    {
      "inputs": [
        {
          "internalType": "address",
          "name": "sender",
          "type": "address"
        },
        {
          "internalType": "uint256",
          "name": "tokenId",
          "type": "uint256"
        },
        {
          "internalType": "address",
          "name": "owner",
          "type": "address"
        }
      ],
      "name": "ERC721IncorrectOwner",
      "type": "error"
    },
    {
      "inputs": [
        {
          "internalType": "address",
          "name": "operator",
          "type": "address"
        },
        {
          "internalType": "uint256",
          "name": "tokenId",
          "type": "uint256"
        }
      ],
      "name": "ERC721InsufficientApproval",
      "type": "error"
    },
    {
      "inputs": [
        {
          "internalType": "address",
          "name": "approver",
          "type": "address"
        }
      ],
      "name": "ERC721InvalidApprover",
      "type": "error"
    },
    {
      "inputs": [
        {
          "internalType": "address",
          "name": "operator",
          "type": "address"
        }
      ],
      "name": "ERC721InvalidOperator",
      "type": "error"
    },
    {
      "inputs": [
        {
          "internalType": "address",
          "name": "owner",
          "type": "address"
        }
      ],
      "name": "ERC721InvalidOwner",
      "type": "error"
    },
    {
      "inputs": [
        {
          "internalType": "address",
          "name": "receiver",
          "type": "address"
        }
      ],
      "name": "ERC721InvalidReceiver",
      "type": "error"
    },
    {
      "inputs": [
        {
          "internalType": "address",
          "name": "sender",
          "type": "address"
        }
      ],
      "name": "ERC721InvalidSender",
      "type": "error"
    },
    {
      "inputs": [
        {
          "internalType": "uint256",
          "name": "tokenId",
          "type": "uint256"
        }
      ],
      "name": "ERC721NonexistentToken",
      "type": "error"
    },
    {
      "inputs": [
        {
          "internalType": "address",
          "name": "owner",
          "type": "address"
        }
      ],
      "name": "OwnableInvalidOwner",
      "type": "error"
    },
    {
      "inputs": [
        {
          "internalType": "address",
          "name": "account",
          "type": "address"
        }
      ],
      "name": "OwnableUnauthorizedAccount",
      "type": "error"
    },
    {
      "inputs": [],
      "name": "ReentrancyGuardReentrantCall",
      "type": "error"
    },
    {
      "anonymous": false,
      "inputs": [
        {
          "indexed": true,
          "internalType": "address",
          "name": "owner",
          "type": "address"
        },
        {
          "indexed": true,
          "internalType": "address",
          "name": "approved",
          "type": "address"
        },
        {
          "indexed": true,
          "internalType": "uint256",
          "name": "tokenId",
          "type": "uint256"
        }
      ],
      "name": "Approval",
      "type": "event"
    },
    {
      "anonymous": false,
      "inputs": [
        {
          "indexed": true,
          "internalType": "address",
          "name": "owner",
          "type": "address"
        },
        {
          "indexed": true,
          "internalType": "address",
          "name": "operator",
          "type": "address"
        },
        {
          "indexed": false,
          "internalType": "bool",
          "name": "approved",
          "type": "bool"
        }
      ],
      "name": "ApprovalForAll",
      "type": "event"
    },
    {
      "anonymous": false,
      "inputs": [
        {
          "indexed": true,
          "internalType": "address",
          "name": "claimer",
          "type": "address"
        },
        {
          "indexed": false,
          "internalType": "uint256",
          "name": "balanceClaimed",
          "type": "uint256"
        }
      ],
      "name": "BalanceClaimed",
      "type": "event"
    },
    {
      "anonymous": false,
      "inputs": [
        {
          "indexed": false,
          "internalType": "string",
          "name": "newDescription",
          "type": "string"
        }
      ],
      "name": "CollectionDescriptionUpdated",
      "type": "event"
    },
    {
      "anonymous": false,
      "inputs": [
        {
          "indexed": false,
          "internalType": "bytes32",
          "name": "dataHash",
          "type": "bytes32"
        },
        {
          "indexed": true,
          "internalType": "address",
          "name": "minter",
          "type": "address"
        },
        {
          "indexed": true,
          "internalType": "uint256",
          "name": "tokenId",
          "type": "uint256"
        },
        {
          "indexed": true,
          "internalType": "address",
          "name": "referrer",
          "type": "address"
        }
      ],
      "name": "EternamIDMinted",
      "type": "event"
    },
    {
      "anonymous": false,
      "inputs": [
        {
          "indexed": true,
          "internalType": "uint256",
          "name": "tokenId",
          "type": "uint256"
        },
        {
          "indexed": false,
          "internalType": "bytes32",
          "name": "newHash",
          "type": "bytes32"
        }
      ],
      "name": "HashUpdated",
      "type": "event"
    },
    {
      "anonymous": false,
      "inputs": [
        {
          "indexed": true,
          "internalType": "address",
          "name": "previousOwner",
          "type": "address"
        },
        {
          "indexed": true,
          "internalType": "address",
          "name": "newOwner",
          "type": "address"
        }
      ],
      "name": "OwnershipTransferred",
      "type": "event"
    },
    {
      "anonymous": false,
      "inputs": [
        {
          "indexed": true,
          "internalType": "uint256",
          "name": "tokenId",
          "type": "uint256"
        },
        {
          "indexed": false,
          "internalType": "uint256",
          "name": "fatherId",
          "type": "uint256"
        },
        {
          "indexed": false,
          "internalType": "uint256",
          "name": "motherId",
          "type": "uint256"
        }
      ],
      "name": "ParentsUpdated",
      "type": "event"
    },
    {
      "anonymous": false,
      "inputs": [
        {
          "indexed": false,
          "internalType": "string",
          "name": "referralCode",
          "type": "string"
        },
        {
          "indexed": true,
          "internalType": "address",
          "name": "referralAddress",
          "type": "address"
        }
      ],
      "name": "ReferralRegistered",
      "type": "event"
    },
    {
      "anonymous": false,
      "inputs": [
        {
          "indexed": false,
          "internalType": "string",
          "name": "referralCode",
          "type": "string"
        },
        {
          "indexed": true,
          "internalType": "address",
          "name": "referralAddress",
          "type": "address"
        }
      ],
      "name": "ReferralRemoved",
      "type": "event"
    },
    {
      "anonymous": false,
      "inputs": [
        {
          "indexed": true,
          "internalType": "address",
          "name": "from",
          "type": "address"
        },
        {
          "indexed": true,
          "internalType": "address",
          "name": "to",
          "type": "address"
        },
        {
          "indexed": true,
          "internalType": "uint256",
          "name": "tokenId",
          "type": "uint256"
        }
      ],
      "name": "Transfer",
      "type": "event"
    },
    {
      "inputs": [
        {
          "internalType": "string",
          "name": "_refCode",
          "type": "string"
        },
        {
          "internalType": "address",
          "name": "_refAddress",
          "type": "address"
        }
      ],
      "name": "addReferral",
      "outputs": [],
      "stateMutability": "nonpayable",
      "type": "function"
    },
    {
      "inputs": [
        {
          "internalType": "address",
          "name": "",
          "type": "address"
        }
      ],
      "name": "addressToRefCode",
      "outputs": [
        {
          "internalType": "string",
          "name": "",
          "type": "string"
        }
      ],
      "stateMutability": "view",
      "type": "function"
    },
    {
      "inputs": [
        {
          "internalType": "address",
          "name": "to",
          "type": "address"
        },
        {
          "internalType": "uint256",
          "name": "tokenId",
          "type": "uint256"
        }
      ],
      "name": "approve",
      "outputs": [],
      "stateMutability": "nonpayable",
      "type": "function"
    },
    {
      "inputs": [
        {
          "internalType": "address",
          "name": "owner",
          "type": "address"
        }
      ],
      "name": "balanceOf",
      "outputs": [
        {
          "internalType": "uint256",
          "name": "",
          "type": "uint256"
        }
      ],
      "stateMutability": "view",
      "type": "function"
    },
    {
      "inputs": [],
      "name": "claimBalance",
      "outputs": [],
      "stateMutability": "nonpayable",
      "type": "function"
    },
    {
      "inputs": [],
      "name": "collectionDescription",
      "outputs": [
        {
          "internalType": "string",
          "name": "",
          "type": "string"
        }
      ],
      "stateMutability": "view",
      "type": "function"
    },
    {
      "inputs": [
        {
          "internalType": "uint256",
          "name": "tokenId",
          "type": "uint256"
        }
      ],
      "name": "getApproved",
      "outputs": [
        {
          "internalType": "address",
          "name": "",
          "type": "address"
        }
      ],
      "stateMutability": "view",
      "type": "function"
    },
    {
      "inputs": [
        {
          "internalType": "address",
          "name": "_addr",
          "type": "address"
        }
      ],
      "name": "getBalanceToClaim",
      "outputs": [
        {
          "internalType": "uint256",
          "name": "",
          "type": "uint256"
        }
      ],
      "stateMutability": "view",
      "type": "function"
    },
    {
      "inputs": [],
      "name": "getContractBalance",
      "outputs": [
        {
          "internalType": "uint256",
          "name": "",
          "type": "uint256"
        }
      ],
      "stateMutability": "view",
      "type": "function"
    },
    {
      "inputs": [],
      "name": "getSVG",
      "outputs": [
        {
          "internalType": "string",
          "name": "",
          "type": "string"
        }
      ],
      "stateMutability": "view",
      "type": "function"
    },
    {
      "inputs": [
        {
          "internalType": "uint256",
          "name": "_tokenId",
          "type": "uint256"
        }
      ],
      "name": "getTokenHash",
      "outputs": [
        {
          "internalType": "bytes32",
          "name": "",
          "type": "bytes32"
        }
      ],
      "stateMutability": "view",
      "type": "function"
    },
    {
      "inputs": [
        {
          "internalType": "address",
          "name": "owner",
          "type": "address"
        },
        {
          "internalType": "address",
          "name": "operator",
          "type": "address"
        }
      ],
      "name": "isApprovedForAll",
      "outputs": [
        {
          "internalType": "bool",
          "name": "",
          "type": "bool"
        }
      ],
      "stateMutability": "view",
      "type": "function"
    },
    {
      "inputs": [
        {
          "internalType": "bytes32",
          "name": "_hash",
          "type": "bytes32"
        },
        {
          "internalType": "string",
          "name": "_refCode",
          "type": "string"
        },
        {
          "internalType": "uint256",
          "name": "_fatherId",
          "type": "uint256"
        },
        {
          "internalType": "uint256",
          "name": "_motherId",
          "type": "uint256"
        }
      ],
      "name": "mintEternamID",
      "outputs": [],
      "stateMutability": "nonpayable",
      "type": "function"
    },
    {
      "inputs": [],
      "name": "name",
      "outputs": [
        {
          "internalType": "string",
          "name": "",
          "type": "string"
        }
      ],
      "stateMutability": "view",
      "type": "function"
    },
    {
      "inputs": [],
      "name": "owner",
      "outputs": [
        {
          "internalType": "address",
          "name": "",
          "type": "address"
        }
      ],
      "stateMutability": "view",
      "type": "function"
    },
    {
      "inputs": [
        {
          "internalType": "uint256",
          "name": "tokenId",
          "type": "uint256"
        }
      ],
      "name": "ownerOf",
      "outputs": [
        {
          "internalType": "address",
          "name": "",
          "type": "address"
        }
      ],
      "stateMutability": "view",
      "type": "function"
    },
    {
      "inputs": [
        {
          "internalType": "string",
          "name": "",
          "type": "string"
        }
      ],
      "name": "refCodeToAddress",
      "outputs": [
        {
          "internalType": "address",
          "name": "",
          "type": "address"
        }
      ],
      "stateMutability": "view",
      "type": "function"
    },
    {
      "inputs": [
        {
          "internalType": "string",
          "name": "_refCode",
          "type": "string"
        }
      ],
      "name": "removeReferral",
      "outputs": [],
      "stateMutability": "nonpayable",
      "type": "function"
    },
    {
      "inputs": [],
      "name": "renounceOwnership",
      "outputs": [],
      "stateMutability": "nonpayable",
      "type": "function"
    },
    {
      "inputs": [
        {
          "internalType": "address",
          "name": "_token",
          "type": "address"
        },
        {
          "internalType": "uint256",
          "name": "_amount",
          "type": "uint256"
        }
      ],
      "name": "rescueTokens",
      "outputs": [],
      "stateMutability": "nonpayable",
      "type": "function"
    },
    {
      "inputs": [
        {
          "internalType": "address",
          "name": "from",
          "type": "address"
        },
        {
          "internalType": "address",
          "name": "to",
          "type": "address"
        },
        {
          "internalType": "uint256",
          "name": "tokenId",
          "type": "uint256"
        }
      ],
      "name": "safeTransferFrom",
      "outputs": [],
      "stateMutability": "nonpayable",
      "type": "function"
    },
    {
      "inputs": [
        {
          "internalType": "address",
          "name": "from",
          "type": "address"
        },
        {
          "internalType": "address",
          "name": "to",
          "type": "address"
        },
        {
          "internalType": "uint256",
          "name": "tokenId",
          "type": "uint256"
        },
        {
          "internalType": "bytes",
          "name": "data",
          "type": "bytes"
        }
      ],
      "name": "safeTransferFrom",
      "outputs": [],
      "stateMutability": "nonpayable",
      "type": "function"
    },
    {
      "inputs": [
        {
          "internalType": "address",
          "name": "operator",
          "type": "address"
        },
        {
          "internalType": "bool",
          "name": "approved",
          "type": "bool"
        }
      ],
      "name": "setApprovalForAll",
      "outputs": [],
      "stateMutability": "nonpayable",
      "type": "function"
    },
    {
      "inputs": [
        {
          "internalType": "string",
          "name": "_newDescription",
          "type": "string"
        }
      ],
      "name": "setCollectionDescription",
      "outputs": [],
      "stateMutability": "nonpayable",
      "type": "function"
    },
    {
      "inputs": [
        {
          "internalType": "uint256",
          "name": "_tokenId",
          "type": "uint256"
        },
        {
          "internalType": "uint256",
          "name": "_fatherId",
          "type": "uint256"
        },
        {
          "internalType": "uint256",
          "name": "_motherId",
          "type": "uint256"
        }
      ],
      "name": "setParents",
      "outputs": [],
      "stateMutability": "nonpayable",
      "type": "function"
    },
    {
      "inputs": [
        {
          "internalType": "bytes4",
          "name": "interfaceId",
          "type": "bytes4"
        }
      ],
      "name": "supportsInterface",
      "outputs": [
        {
          "internalType": "bool",
          "name": "",
          "type": "bool"
        }
      ],
      "stateMutability": "view",
      "type": "function"
    },
    {
      "inputs": [],
      "name": "symbol",
      "outputs": [
        {
          "internalType": "string",
          "name": "",
          "type": "string"
        }
      ],
      "stateMutability": "view",
      "type": "function"
    },
    {
      "inputs": [],
      "name": "tokenId",
      "outputs": [
        {
          "internalType": "uint256",
          "name": "",
          "type": "uint256"
        }
      ],
      "stateMutability": "view",
      "type": "function"
    },
    {
      "inputs": [
        {
          "internalType": "uint256",
          "name": "_tokenId",
          "type": "uint256"
        }
      ],
      "name": "tokenURI",
      "outputs": [
        {
          "internalType": "string",
          "name": "",
          "type": "string"
        }
      ],
      "stateMutability": "view",
      "type": "function"
    },
    {
      "inputs": [],
      "name": "totalSupply",
      "outputs": [
        {
          "internalType": "uint256",
          "name": "",
          "type": "uint256"
        }
      ],
      "stateMutability": "view",
      "type": "function"
    },
    {
      "inputs": [
        {
          "internalType": "address",
          "name": "from",
          "type": "address"
        },
        {
          "internalType": "address",
          "name": "to",
          "type": "address"
        },
        {
          "internalType": "uint256",
          "name": "tokenId",
          "type": "uint256"
        }
      ],
      "name": "transferFrom",
      "outputs": [],
      "stateMutability": "nonpayable",
      "type": "function"
    },
    {
      "inputs": [
        {
          "internalType": "address",
          "name": "newOwner",
          "type": "address"
        }
      ],
      "name": "transferOwnership",
      "outputs": [],
      "stateMutability": "nonpayable",
      "type": "function"
    }
  ],
  "bytecode": "0x60c0806040523461160657604081614389803803809161001f828561160a565b8339810103126116065761003e60206100378361162d565b920161162d565b60409081519261004e838561160a565b600a845269115d195c9b985b48125160b21b6020850152825193610072848661160a565b600385526211525160ea1b60208601528051906001600160401b03821161141f57819061009f5f5461165c565b601f81116115b9575b50602090601f8311600114611556575f9261154b575b50508160011b915f199060031b1c1916175f555b83516001600160401b03811161141f576100ed60015461165c565b601f81116114fd575b50602094601f821160011461149a579481929394955f9261148f575b50508160011b915f199060031b1c1916176001555b331561147c5760068054336001600160a01b0319821681179092556001600160a01b03167f8be0079c531659141344cd1fd0a4f28419497f9722a3daafe3b4186f6b6457e05f80a361017a60095461165c565b601f8111611433575b50606760099081555f527f41204e465420436f6c6c656374696f6e20746f20756e6c6f636b2064617461205f5160206143695f395f51905f52557f73746f72656420666f722065616368204e4654000000000000000000000000007f6e1540171b6c0c960b71a7020d9f60077f6af931a8bbf590da0223dacf75c7b0556080526001600160a01b031660a05280516112c990610221610d608261160a565b610d3781527f2c312e30355a272f3e3c2f673e3c2f673e3c2f7376673e000000000000000000610d4060208301927f3c7376672069643d2743616c7175655f322720646174612d6e616d653d27436184527f6c71756520322720786d6c6e733d27687474703a2f2f7777772e77332e6f7267868201527f2f323030302f737667272076696577426f783d2730203020323430203234302760608201527f3e3c646566733e3c7374796c653e2e636c732d317b66696c6c3a236666663b7d60808201527f2e636c732d327b66696c6c3a233133323734333b7d3c2f7374796c653e3c2f6460a08201527f6566733e3c672069643d2743616c7175655f312d322720646174612d6e616d6560c08201527f3d2743616c7175652031273e3c7265637420636c6173733d27636c732d32272060e08201527f77696474683d2732343027206865696768743d27323430272f3e3c673e3c70616101008201527f746820636c6173733d27636c732d312720643d274d36302e34372c3132362e356101208201527f762d31372e34366831312e363876322e3936682d382e313176342e323268372e6101408201527f3576322e3932682d372e3576342e333968382e313376322e3936682d31312e376101608201527f315a272f3e3c7061746820636c6173733d27636c732d312720643d274d38312e6101808201527f34372c3131332e3476322e3638682d372e3737762d322e363868372e37375a4d6101a08201527f37352e352c3131302e323868332e35327631322e333963302c2e34312e30392e6101c08201527f37322e32382e3932732e34392e332e39322e33632e31332c302c2e33322d2e306101e08201527f322e35362d2e3035732e34332d2e30372e35352d2e316c2e352c322e3634632d6102008201527f2e33392e31322d2e37382e322d312e31372e3235732d2e37362e30372d312e316102208201527f312e3037632d312e33312c302d322e33322d2e33322d332e30312d2e3936732d6102408201527f312e30342d312e35362d312e30342d322e3735762d31322e36395a272f3e3c706102608201527f61746820636c6173733d27636c732d312720643d274d38392e34342c3132362e6102808201527f3736632d312e33342c302d322e34392d2e32372d332e34362d2e3832732d312e6102a08201527f37312d312e33322d322e32332d322e33332d2e37382d322e322d2e37382d332e6102c08201527f35392e32362d322e35342e37372d332e35352c312e32352d312e38312c322e316102e08201527f392d322e33382c322e30352d2e38362c332e33332d2e3836632e38362c302c316103008201527f2e36362e31342c322e342e343173312e33392e36392c312e39362c312e32342c6103208201527f312c312e32342c312e33322c322e30372e34372c312e382e34372c322e3933766103408201527f2e3938682d3131762d322e3268392e32386c2d312e36342e353963302d2e36386103608201527f2d2e312d312e32372d2e33312d312e3738732d2e35322d2e38392d2e39332d316103808201527f2e31372d2e39322d2e34322d312e35322d2e34322d312e31332e31342d312e356103a08201527f352e34322d2e37352e36362d2e39372c312e31342d2e33332c312e30332d2e336103c08201527f332c312e363576312e353663302c2e37362e31332c312e33392e33382c312e396103e08201527f31732e36312e392c312e30372c312e31362e39392e33392c312e362e3339632e6104008201527f34312c302c2e37392d2e30362c312e31322d2e3138732e36322d2e32392e38366104208201527f2d2e35322e34322d2e35312e35342d2e38356c332e31392e36632d2e32312e376104408201527f322d2e35382c312e33352d312e312c312e3839732d312e31382e39362d312e396104608201527f362c312e32362d312e36392e34352d322e37312e34355a272f3e3c70617468206104808201527f636c6173733d27636c732d312720643d274d39372e38322c3132362e35762d316104a08201527f332e3168332e3476322e3239682e3134632e32342d2e38312e36352d312e34336104c08201527f2c312e32312d312e383473312e32322d2e36322c312e39352d2e3632632e31386104e08201527f2c302c2e33382c302c2e35392e3033732e33392e30352e35352e303976332e316105008201527f34632d2e31362d2e30352d2e33382d2e312d2e36382d2e3133732d2e35382d2e6105208201527f30352d2e38342d2e3035632d2e35332c302d312e30312e31322d312e34342e336105408201527f35732d2e37362e35352d312c2e39362d2e33362e38392d2e33362c312e3434766105608201527f372e3435682d332e35325a272f3e3c7061746820636c6173733d27636c732d316105808201527f2720643d274d3131312e32382c3131382e393276372e3538682d332e3532762d6105a08201527f31332e3168332e33326c2e30362c332e3237682d2e3231632e33342d312e30396105c08201527f2e38372d312e39342c312e35362d322e353473312e362d2e392c322e37312d2e6105e08201527f39632e39312c302c312e372e322c322e33372e353973312e322e39362c312e356106008201527f372c312e372e35362c312e36322e35362c322e363476382e3333682d332e35326106208201527f762d372e373263302d2e38312d2e32312d312e34352d2e36332d312e3931732d6106408201527f312d2e36392d312e37342d2e3639632d2e34392c302d2e39332e31312d312e336106608201527f322e3332732d2e36392e35332d2e392e39332d2e33322e392d2e33322c312e346106808201527f395a272f3e3c7061746820636c6173733d27636c732d312720643d274d3132366106a08201527f2e33362c3132362e3736632d2e38332c302d312e35372d2e31352d322e32332d6106c08201527f2e3434732d312e31382d2e37332d312e35362d312e33312d2e35372d312e33316106e08201527f2d2e35372d322e313763302d2e37332e31332d312e33342e342d312e3833732e6107008201527f36342d2e38392c312e312d312e31382e39392d2e35322c312e35382d2e36382c6107208201527f312e32312d2e32372c312e38362d2e3333632e37362d2e30382c312e33372d2e6107408201527f31352c312e38332d2e3232732e382d2e31372c312e30322d2e33322e33322d2e6107608201527f33362e33322d2e3634762d2e303663302d2e33382d2e30382d2e36392d2e32336107808201527f2d2e3935732d2e33392d2e34362d2e372d2e35392d2e36382d2e32312d312e316107a08201527f322d2e32312d2e38352e30372d312e31382e32312d2e36312e33322d2e38322e6107c08201527f35342d2e33372e34382d2e34372e37366c2d332e32322d2e3533632e32332d2e6107e08201527f37372e362d312e34312c312e31322d312e393573312e31372d2e39342c312e396108008201527f352d312e32322c312e36352d2e34322c322e36332d2e3432632e372c302c312e6108208201527f33392e30382c322e30352e323573312e32362e34332c312e37392e37382e39356108408201527f2e38312c312e32352c312e33382e34362c312e32342e34362c322e303376382e6108608201527f3832682d332e3333762d312e3832682d2e3132632d2e32312e34312d2e34392e6108808201527f37362d2e38342c312e3037732d2e37382e35352d312e32372e37332d312e30376108a08201527f2e32372d312e37322e32375a4d3132372e33362c3132342e3238632e35352c306108c08201527f2c312e30342d2e31312c312e34362d2e3333732e37342d2e35322e39382d2e386108e08201527f392e33352d2e37392e33352d312e3235762d312e3432632d2e312e30382d2e326109008201527f362e31352d2e34372e3231732d2e34352e31322d2e372e31362d2e35312e30396109208201527f2d2e37362e31332d2e34372e30372d2e36372e3039632d2e34332e30362d2e386109408201527f312e31362d312e31342e33732d2e35382e33332d2e37362e35362d2e32372e356109608201527f332d2e32372e383863302c2e33342e30392e36322e32362e3835732e34312e346109808201527f2e37302e35322e36342e31382c312e30322e31385a272f3e3c7061746820636c6109a08201527f6173733d27636c732d312720643d274d3133362e36342c3132362e35762d31336109c08201527f2e3168332e32366c2e31382c332e3236682d2e3236632e322d2e382e352d312e6109e08201527f34362e392d312e3937732e38362d2e38382c312e33392d312e31322c312e3039610a008201527f2d2e33362c312e36382d2e3336632e39352c302c312e37312e332c322e32392e610a208201527f3973312c312e35322c312e32382c322e3737682d2e3431632e322d2e38342e35610a408201527f312d312e35332e39362d322e3037732e39362d2e39352c312e35372d312e3231610a608201527f2c312e32342d2e33392c312e392d2e3339632e382c302c312e35322e31382c32610a808201527f2e31352e353373312e31322e38362c312e34392c312e35322e35342c312e3437610aa08201527f2e35342c322e343276382e3834682d332e3532762d382e313763302d2e37342d610ac08201527f2e322d312e32392d2e362d312e3635732d2e392d2e35342d312e34382d2e3534610ae08201527f632d2e34342c302d2e38322e312d312e31342e3239732d2e35372e34362d2e37610b008201527f352e382d2e32362e37352d2e32362c312e323176382e3036682d332e34762d38610b208201527f2e323663302d2e36342d2e31392d312e31352d2e35372d312e3533732d2e3837610b408201527f2d2e35372d312e34372d2e3537632d2e34312c302d2e37392e30392d312e3132610b608201527f2e3238732d2e35392e34362d2e37392e38332d2e32392e38312d2e32392c312e610b808201527f333376372e3932682d332e35325a272f3e3c7061746820636c6173733d27636c610ba08201527f732d312720643d274d3136322e322c3130392e30347631372e3436682d332e35610bc08201527f37762d31372e343668332e35375a272f3e3c7061746820636c6173733d27636c610be08201527f732d312720643d274d3136382e39342c3130392e30347631372e3436682d332e610c008201527f3537762d31372e343668332e35375a4d3137312e352c3132362e35682d342e35610c208201527f32762d332e303868342e333563312e31322c302c322e30372d2e322c322e3833610c408201527f2d2e3673312e33332d312e30322c312e37322d312e38352e35372d312e39312e610c608201527f35372d332e32312d2e31392d322e33362d2e35382d332e31392d2e39362d312e610c808201527f34352d312e37312d312e38352d312e36392d2e362d322e38312d2e36682d342e610ca08201527f3435762d332e303868342e363663312e37352c302c332e32362e33352c342e35610cc08201527f322c312e303573322e32332c312e372c322e39312c332c312e30322c322e3836610ce08201527f2c312e30322c342e36372d2e33342c332e33382d312e30322c342e36392d312e610d008201527f36352c322e33312d322e39322c332e30312d322e37392c312e30352d342e3536610d208201520152610d37835191602083015e5f610d57820152610d378152611268610d578261160a565b82519061127660608361160a565b8382527f4142434445464748494a4b4c4d4e4f505152535455565758595a61626364656660208301527f6768696a6b6c6d6e6f707172737475767778797a303132333435363738392b2f848301526116aa565b80519091906001600160401b03811161141f576112e760085461165c565b601f81116113c6575b50602092601f821160011461136557928192935f9261135a575b50508160011b915f199060031b1c1916176008555b51612b9190816117d882396080518181816107a20152610b02015260a0518181816106c80152818161192a01528181611a710152611c710152f35b015190505f8061130a565b601f1982169360085f52805f20915f5b8681106113ae5750836001959610611396575b505050811b0160085561131f565b01515f1960f88460031b161c191690555f8080611388565b91926020600181928685015181550194019201611375565b60085f5261140f907ff3f7a9fe364faab93b216da50a3214154f22a0a2b415b23a84c8169e8b636ee3601f840160051c81019160208510611415575b601f0160051c0190611694565b5f6112f0565b9091508190611402565b634e487b7160e01b5f52604160045260245ffd5b60095f5261147690601f0160051c5f5160206143695f395f51905f52017f6e1540171b6c0c960b71a7020d9f60077f6af931a8bbf590da0223dacf75c7b1611694565b5f610183565b631e4fbdf760e01b5f525f60045260245ffd5b015190505f80610112565b601f1982169560015f52805f20915f5b8881106114e5575083600195969798106114cd575b505050811b01600155610127565b01515f1960f88460031b161c191690555f80806114bf565b919260206001819286850151815501940192016114aa565b60015f52611545907fb10e2d527612073b26eecdfd717e6a320cf44b4afac2b0732d9fcbe2b7fa0cf6601f840160051c8101916020851061141557601f0160051c0190611694565b5f6100f6565b015190505f806100be565b5f8080528281209350601f198516905b8181106115a15750908460019594939210611589575b505050811b015f556100d2565b01515f1960f88460031b161c191690555f808061157c565b92936020600181928786015181550195019301611566565b5f8052611600907f290decd9548b62a8d60345a988386fc84ba6bc95484008f6362f93160ef3e563601f850160051c8101916020861061141557601f0160051c0190611694565b5f6100a8565b5f80fd5b601f909101601f19168101906001600160401b0382119082101761141f57604052565b51906001600160a01b038216820361160657565b6001600160401b03811161141f57601f01601f191660200190565b90600182811c9216801561168a575b602083101461167657565b634e487b7160e01b5f52602260045260245ffd5b91607f169161166b565b81811061169f575050565b5f8155600101611694565b9190918051156117c0578051600281018091116117ac5760039004600281901b91906001600160fe1b038116036117ac576116fd6116e783611641565b926116f5604051948561160a565b808452611641565b6020830190601f19013682379080815182019560208701908151925f83525b88811061175e575050600393949596505251068060011461174c57600214611742575090565b603d905f19015390565b50603d90815f19820153600119015390565b600360049199969901986001603f8b5182828260121c16870101518453828282600c1c16870101518385015382828260061c168701015160028501531684010151600382015301949761171c565b634e487b7160e01b5f52601160045260245ffd5b5090506040516117d160208261160a565b5f81529056fe6080806040526004361015610012575f80fd5b5f3560e01c90816301ffc9a7146121f35750806306fdde0314612151578063081812fc14612115578063095ea7b31461202b57806317d70f7c1461200e57806318160ddd1461200e5780631850696514611f4057806323b872dd14611f295780632a952b4b14611da557806330509bca14611bc457806342842e0e14611b95578063489187e814611b7a5780635737619814611a425780636352211e14611a12578063686161cd1461199f5780636f9fb98a146118ff57806370a08231146118ae578063715018a6146118535780638da5cb5b1461182b5780639471302e1461167357806395d89b41146115ce578063a0cc0dc514611582578063a22cb465146114e7578063b88d4fde14611479578063b9c2f3ea1461131b578063bdf30f39146112e3578063c87b56dd14610d85578063ddfc232714610619578063e2c6875c1461054a578063e985e9c5146104f3578063f2fde38b1461046d5763ff97bced1461017c575f80fd5b346104695760403660031901126104695760043567ffffffffffffffff8111610469576101ad903690600401612467565b6101b5612298565b6101bd61275b565b60405182848237600a8184019081528190036020019020546001600160a01b031661042b5760018060a01b031690815f52600b60205261020060405f20546122ae565b6103da5781156103a35760405181848237602081838101600a815203019020826001600160601b0360a01b825416179055815f52600b60205260405f209267ffffffffffffffff821161038f5761025784546122ae565b601f8111610354575b505f93601f83116001146102d2576102b083807f6c43371d6cf090f194c7d77085b3715e22eb5254874fc6d99aa31ebdb733ae5996975f916102c7575b508160011b915f199060031b1c19161790565b90555b6102c2604051928392836126db565b0390a2005b90508401355f61029d565b601f19831694815f5260205f20905f5b87811061033c5750847f6c43371d6cf090f194c7d77085b3715e22eb5254874fc6d99aa31ebdb733ae59969710610323575b5050600183811b0190556102b3565b8301355f19600386901b60f8161c191690555f80610314565b909160206001819285880135815501930191016102e2565b61037f90855f5260205f20601f850160051c81019160208610610385575b601f0160051c01906126c5565b5f610260565b9091508190610372565b634e487b7160e01b5f52604160045260245ffd5b60405162461bcd60e51b815260206004820152600f60248201526e496e76616c6964206164647265737360881b6044820152606490fd5b60405162461bcd60e51b815260206004820152602360248201527f416464726573732068617320616c7265616479206120526566657272616c20636044820152626f646560e81b6064820152608490fd5b60405162461bcd60e51b8152602060048201526016602482015275436f646520697320616c726561647920696e2075736560501b6044820152606490fd5b5f80fd5b3461046957602036600319011261046957610486612282565b61048e61275b565b6001600160a01b031680156104e057600680546001600160a01b0319811683179091556001600160a01b03167f8be0079c531659141344cd1fd0a4f28419497f9722a3daafe3b4186f6b6457e05f80a3005b631e4fbdf760e01b5f525f60045260245ffd5b346104695760403660031901126104695761050c612282565b610514612298565b9060018060a01b03165f52600560205260405f209060018060a01b03165f52602052602060ff60405f2054166040519015158152f35b34610469575f366003190112610469576040515f60095461056a816122ae565b80845290600181169081156105f557506001146105aa575b6105a68361059281850382612302565b60405191829160208352602083019061225e565b0390f35b60095f9081525f516020612b3c5f395f51905f52939250905b8082106105db57509091508101602001610592610582565b9192600181602092548385880101520191019092916105c3565b60ff191660208086019190915291151560051b840190910191506105929050610582565b346104695760803660031901126104695760043560243567ffffffffffffffff81116104695761064d903690600401612467565b600754916044356064358482111580610d7b575b15610d3657811592839484159485610d2e575b8015610d24575b61068490612661565b8715610cec5780604051928337600a9082019081528190036020019020546001600160a01b031694338614610ca7576040516370a0823160e01b81523360048201527f00000000000000000000000000000000000000000000000000000000000000006001600160a01b031690602081602481855afa8015610bb1575f90610c71575b6307270e00915010610c3757604051636eb1769f60e11b8152336004820152306024820152602081604481855afa8015610bb1575f90610c01575b6307270e00915010610bbc5760205f916064604051809481936323b872dd60e01b83523360048401523060248401526307270e0060448401525af1908115610bb1575f91610b82575b5015610b46576001016007819055938515610af9577f00000000000000000000000000000000000000000000000000000000000000006001600160a01b03165f908152600c6020526040902080546305f5e100810191908210610ae55755855f52600c60205260405f209384546301312d008101809111610ae5578695555b90610adc575b610a7a575b50505f52600e6020528260405f20556020926040516108348582612302565b5f81523315610a67575f8381526002865260409020546001600160a01b03168015159081610a36575b335f8181526003895260408082208054600101905587825260028a52812080546001600160a01b0319168317905586919083907fddf252ad1be2c89b69c2b068fc378daa952ba7f163c4a11628f55a4df523b3ef9080a450610a2357333b6108ee575b507fb004e900249c0cc1be91cb9ac65834c64db53b08f3b490bc422db71d163d7417846040519283523392a4005b846109279160405180938192630a85bd0160e11b83523360048401525f602484015287604484015260806064840152608483019061225e565b03815f335af15f91816109e3575b5061098957843d15610981573d9061094c82612415565b9161095a6040519384612302565b82523d5f8284013e5b8151918261097e57633250574960e11b5f523360045260245ffd5b01fd5b606090610963565b929391929091906001600160e01b03191663757a42ff60e11b016109d0579291907fb004e900249c0cc1be91cb9ac65834c64db53b08f3b490bc422db71d163d74176108c0565b633250574960e11b5f523360045260245ffd5b9091508581813d8311610a1c575b6109fb8183612302565b8101031261046957516001600160e01b031981168103610469579086610935565b503d6109f1565b6339e3563760e11b5f525f60045260245ffd5b5f8581526004602052604080822080546001600160a01b031916905582825260038952902080545f1901905561085d565b633250574960e11b5f525f60045260245ffd5b7fc1a025bf34cb252f29c6b2c451d693968767b98c4d992906da8ce406458d8fff916040918251610aaa816122e6565b828152600160208201838152875f52600d602052855f20925183555191015582519182526020820152a2808480610815565b50801515610810565b634e487b7160e01b5f52601160045260245ffd5b60018060a01b037f0000000000000000000000000000000000000000000000000000000000000000165f52600c60205260405f209384546307270e008101809111610ae55786955561080a565b60405162461bcd60e51b81526020600482015260146024820152731554d110c81d1c985b9cd9995c8819985a5b195960621b6044820152606490fd5b610ba4915060203d602011610baa575b610b9c8183612302565b8101906126ad565b8861078b565b503d610b92565b6040513d5f823e3d90fd5b60405162461bcd60e51b815260206004820152601860248201527f4e6f7420656e6f756768205553444320617070726f76656400000000000000006044820152606490fd5b506020813d602011610c2f575b81610c1b60209383612302565b81010312610469576307270e009051610742565b3d9150610c0e565b60405162461bcd60e51b81526020600482015260126024820152714e6f7420656e6f7567682062616c616e636560701b6044820152606490fd5b506020813d602011610c9f575b81610c8b60209383612302565b81010312610469576307270e009051610707565b3d9150610c7e565b60405162461bcd60e51b815260206004820152601b60248201527f43616e277420757365206f776e20726566657272616c20636f646500000000006044820152606490fd5b60405162461bcd60e51b815260206004820152601060248201526f12185cda081a5cc81c995c5d5a5c995960821b6044820152606490fd5b508383141561067b565b508215610674565b60405162461bcd60e51b815260206004820152601860248201527f506172656e74204e465420646f65736e277420657869737400000000000000006044820152606490fd5b5084811115610661565b34610469576020366003190112610469576004355f818152600260205260409020546001600160a01b0316156112a857805f52600d60205260405f20600160405191610dd0836122e6565b80548352015460208201908152825f52600e60205260405f2054915180155f146112995750610dfd612702565b905b518061128a5750610e0e612702565b925b604093845193610e208686612302565b601085526f181899199a1a9b1b9c1cb0b131b232b360811b6020860152855194610e4b608087612302565b6042865260208601916060368437865115611276576030835386516001101561127657607860218801535f5b602081106111ed57505050855194859260208401957f7b2274726169745f74797065223a20224661746865724944222c202276616c7587526432911d101160d91b8986015280516020819201604587015e62089f4b60ea1b6045918601918201527f7b2274726169745f74797065223a20224d6f746865724944222c202276616c7560488201526432911d101160d91b60688201528151918290602001606d83015e016045019062089f4b60ea1b6028830152602b82017f7b2274726169745f74797065223a202248617368222c202276616c7565223a209052601160f91b604b830152518092604c83015e0160280161227d60f01b602482015203602401601d1981018452600201610f8a9084612302565b610f93906128ea565b91610f9c612324565b845193757b226e616d65223a2022457465726e616d204944202360501b602086015280516020819201603687015e711116113232b9b1b934b83a34b7b7111d101160711b6036918601918201526009545f9291610ff8826122ae565b91600181169081156111c6575060011461117e575b5050936110a7600260128360276105a69a9861116c98602089601d9d7f222c2022696d616765223a2022646174613a696d6167652f7376672b786d6c3b6111089c526618985cd94d8d0b60ca1b838301528051928391018683015e019071222c202261747472696275746573223a205b60701b84830152518092603983015e0101615d7d60f01b8382015203018719810184520182612302565b8351906110b5606083612302565b8482527f4142434445464748494a4b4c4d4e4f505152535455565758595a61626364656660208301527f6768696a6b6c6d6e6f707172737475767778797a303132333435363738392b2f85830152612a43565b603d60208085516111198782612302565b87815201927f646174613a6170706c69636174696f6e2f6a736f6e3b6261736536342c000000845285519687948386015e8284015f8152815192839201905e8201015f815203601f198101845283612302565b5191829160208352602083019061225e565b9091925060095f525f516020612b3c5f395f51905f525f905b8382106111af57505001604801906110a7600261100d565b805482840160480152602090910190600101611197565b60ff191660488084019190915283151590930290910190910192506110a79050600261100d565b81811a906001600160f81b031961120b600484901c600f1686612a32565b5116918160011b9282840460021483151715610ae557836002019182600211610ae5576003915f1a61123d848e612a32565b536001600160f81b03199061125590600f1688612a32565b51169301809111610ae55761126f6001935f1a918b612a32565b5301610e77565b634e487b7160e01b5f52603260045260245ffd5b611293906128ea565b92610e10565b6112a2906128ea565b90610dff565b60405162461bcd60e51b8152602060048201526013602482015272151bdad95b88191bd95cdb89dd08195e1a5cdd606a1b6044820152606490fd5b34610469576020366003190112610469576001600160a01b03611304612282565b165f52600c602052602060405f2054604051908152f35b346104695760203660031901126104695760043567ffffffffffffffff81116104695761134c903690600401612467565b9061135561275b565b60405182828237600a8184019081528190036020019020546001600160a01b0316918215611435577f182496147026dbd85efd7e563c02b3e52f2109f82132cade8074691ea1232fa59160405182828237602081848101600a8152030190206001600160601b0360a01b8154169055835f52600b60205260405f206113da81546122ae565b90816113f2575b50506102c2604051928392836126db565b81601f5f93116001146114095750555b84806113e1565b8183526020832061142591601f0160051c8101906001016126c5565b8082528160208120915555611402565b606460405162461bcd60e51b815260206004820152602060248201527f5468697320726566657272616c20636f646520646f65736e27742065786973746044820152fd5b3461046957608036600319011261046957611492612282565b61149a612298565b906044356064359267ffffffffffffffff84116104695736602385011215610469576114d36114e5943690602481600401359101612431565b926114df838383612495565b33612782565b005b3461046957604036600319011261046957611500612282565b60243590811515809203610469576001600160a01b031690811561156f57335f52600560205260405f20825f5260205260405f2060ff1981541660ff83161790556040519081527f17307eab39ab6107e8899845ad3d59bd9653f200f220920489ca2b5937696c3160203392a3005b50630b61174360e31b5f5260045260245ffd5b34610469576020366003190112610469576004355f818152600260205260409020546115b8906001600160a01b0316151561261d565b5f52600e602052602060405f2054604051908152f35b34610469575f366003190112610469576040515f6001546115ee816122ae565b80845290600181169081156105f55750600114611615576105a68361059281850382612302565b60015f9081527fb10e2d527612073b26eecdfd717e6a320cf44b4afac2b0732d9fcbe2b7fa0cf6939250905b80821061165957509091508101602001610592610582565b919260018160209254838588010152019101909291611641565b346104695760203660031901126104695760043567ffffffffffffffff8111610469576116a4903690600401612467565b6116ac61275b565b67ffffffffffffffff811161038f576116c66009546122ae565b601f81116117cd575b505f91601f82116001146117405761171d82807f2c2d11707f68bf1dfd8230437db5f0f4840eacb8cc232f1c58f1f0d10bcd489e955f9161173557508160011b915f199060031b1c19161790565b6009555b611730604051928392836126db565b0390a1005b90508301358661029d565b601f19821660095f525f516020612b3c5f395f51905f52905f5b8181106117b5575093837f2c2d11707f68bf1dfd8230437db5f0f4840eacb8cc232f1c58f1f0d10bcd489e951061179c575b5050600182811b01600955611721565b8201355f19600385901b60f8161c19169055838061178c565b8386013583556020958601956001909301920161175a565b6118109060095f52601f830160051c5f516020612b3c5f395f51905f52019060208410611816575b601f0160051c5f516020612b3c5f395f51905f5201906126c5565b826116cf565b5f516020612b3c5f395f51905f5291506117f5565b34610469575f366003190112610469576006546040516001600160a01b039091168152602090f35b34610469575f3660031901126104695761186b61275b565b600680546001600160a01b031981169091555f906001600160a01b03167f8be0079c531659141344cd1fd0a4f28419497f9722a3daafe3b4186f6b6457e08280a3005b34610469576020366003190112610469576001600160a01b036118cf612282565b1680156118ec575f526003602052602060405f2054604051908152f35b6322718ad960e21b5f525f60045260245ffd5b34610469575f366003190112610469576040516370a0823160e01b81523060048201526020816024817f00000000000000000000000000000000000000000000000000000000000000006001600160a01b03165afa8015610bb1575f9061196c575b602090604051908152f35b506020813d602011611997575b8161198660209383612302565b810103126104695760209051611961565b3d9150611979565b346104695760203660031901126104695760043567ffffffffffffffff81116104695736602382011215610469576119e36020913690602481600401359101612431565b8160405191805191829101835e600a90820190815281900382019020546040516001600160a01b039091168152f35b34610469576020366003190112610469576020611a30600435612727565b6040516001600160a01b039091168152f35b3461046957604036600319011261046957611a5b612282565b611a6361275b565b6001600160a01b03908116907f0000000000000000000000000000000000000000000000000000000000000000168114611b415760065460405163a9059cbb60e01b81526001600160a01b039091166004820152602480359082015290602090829060449082905f905af1908115610bb1575f91611b22575b5015611ae457005b60405162461bcd60e51b815260206004820152601660248201527514995cd8dd59481d1c985b9cd9995c8819985a5b195960521b6044820152606490fd5b611b3b915060203d602011610baa57610b9c8183612302565b81611adc565b60405162461bcd60e51b815260206004820152601160248201527043616e277420726573637565205553444360781b6044820152606490fd5b34610469575f366003190112610469576105a6610592612324565b34610469576114e5611ba6366123db565b9060405192611bb6602085612302565b5f84526114df838383612495565b34610469575f366003190112610469577f9b779b17422d0df92223018b32b4d1fa46e071723d6817e2486d003becc55f005c611d965760017f9b779b17422d0df92223018b32b4d1fa46e071723d6817e2486d003becc55f005d335f52600c60205260405f20548015611d5157335f818152600c602090815260408083208390555163a9059cbb60e01b815260048101939093526024830184905290829060449082906001600160a01b037f0000000000000000000000000000000000000000000000000000000000000000165af1908115610bb1575f91611d32575b5015611cf8576040519081527fe64799e036cf6322d0c3b6d11f4e2fc9d1bd9bb5938dd3d6835921a427c89b8f60203392a25f7f9b779b17422d0df92223018b32b4d1fa46e071723d6817e2486d003becc55f005d005b60405162461bcd60e51b8152602060048201526012602482015271151c985b9cd858dd1a5bdb8811985a5b195960721b6044820152606490fd5b611d4b915060203d602011610baa57610b9c8183612302565b82611ca1565b60405162461bcd60e51b815260206004820152601960248201527f596f752068617665206e6f7468696e6720746f20636c61696d000000000000006044820152606490fd5b633ee5aeb560e01b5f5260045ffd5b3461046957606036600319011261046957600435602435604435611dc761275b565b5f83815260026020526040902054611de9906001600160a01b0316151561261d565b600754808311159081611f1e575b5015611ed9578282141580611ecf575b15611e9357816040917fc1a025bf34cb252f29c6b2c451d693968767b98c4d992906da8ce406458d8fff93158015611e8b575b8015611e81575b611e4a90612661565b8251611e55816122e6565b828152600160208201838152875f52600d602052855f20925183555191015582519182526020820152a2005b5081811415611e41565b508015611e3a565b60405162461bcd60e51b815260206004820152601460248201527310d85b89dd081899481cd95b19881c185c995b9d60621b6044820152606490fd5b5082811415611e07565b60405162461bcd60e51b815260206004820152601d60248201527f506172656e7420546f6b656e20494420646f65736e27742065786973740000006044820152606490fd5b905081111584611df7565b34610469576114e5611f3a366123db565b91612495565b34610469576020366003190112610469576001600160a01b03611f61612282565b165f52600b60205260405f20604051905f90805490611f7f826122ae565b8085529160018116908115611fe75750600114611fa7575b6105a68461059281860382612302565b5f90815260208120939250905b808210611fcd5750909150810160200161059282611f97565b919260018160209254838588010152019101909291611fb4565b60ff191660208087019190915292151560051b850190920192506105929150839050611f97565b34610469575f366003190112610469576020600754604051908152f35b3461046957604036600319011261046957612044612282565b60243561205081612727565b33151580612102575b806120d5575b6120c25781906001600160a01b0384811691167f8c5be1e5ebec7d5bd14f71427d1e84f3dd0314c0f7b2291e5b200ac8c7c3b9255f80a45f90815260046020526040902080546001600160a01b0319166001600160a01b03909216919091179055005b63a9fbf51f60e01b5f523360045260245ffd5b506001600160a01b0381165f90815260056020908152604080832033845290915290205460ff161561205f565b506001600160a01b038116331415612059565b346104695760203660031901126104695760043561213281612727565b505f526004602052602060018060a01b0360405f205416604051908152f35b34610469575f366003190112610469576040515f5f54612170816122ae565b80845290600181169081156105f55750600114612197576105a68361059281850382612302565b5f8080527f290decd9548b62a8d60345a988386fc84ba6bc95484008f6362f93160ef3e563939250905b8082106121d957509091508101602001610592610582565b9192600181602092548385880101520191019092916121c1565b34610469576020366003190112610469576004359063ffffffff60e01b8216809203610469576020916380ac58cd60e01b811490811561224d575b811561223c575b5015158152f35b6301ffc9a760e01b14905083612235565b635b5e139f60e01b8114915061222e565b805180835260209291819084018484015e5f828201840152601f01601f1916010190565b600435906001600160a01b038216820361046957565b602435906001600160a01b038216820361046957565b90600182811c921680156122dc575b60208310146122c857565b634e487b7160e01b5f52602260045260245ffd5b91607f16916122bd565b6040810190811067ffffffffffffffff82111761038f57604052565b90601f8019910116810190811067ffffffffffffffff82111761038f57604052565b604051905f8260085491612337836122ae565b80835292600181169081156123bc575060011461235d575b61235b92500383612302565b565b5060085f90815290917ff3f7a9fe364faab93b216da50a3214154f22a0a2b415b23a84c8169e8b636ee35b8183106123a057505090602061235b9282010161234f565b6020919350806001915483858901015201910190918492612388565b6020925061235b94915060ff191682840152151560051b82010161234f565b6060906003190112610469576004356001600160a01b038116810361046957906024356001600160a01b0381168103610469579060443590565b67ffffffffffffffff811161038f57601f01601f191660200190565b92919261243d82612415565b9161244b6040519384612302565b829481845281830111610469578281602093845f960137010152565b9181601f840112156104695782359167ffffffffffffffff8311610469576020838186019501011161046957565b6001600160a01b0390911691908215610a67575f828152600260205260409020546001600160a01b031692829033151580612588575b5084612555575b805f52600360205260405f2060018154019055815f52600260205260405f20816001600160601b0360a01b825416179055847fddf252ad1be2c89b69c2b068fc378daa952ba7f163c4a11628f55a4df523b3ef5f80a46001600160a01b031680830361253d57505050565b6364283d7b60e01b5f5260045260245260445260645ffd5b5f82815260046020526040902080546001600160a01b0319169055845f52600360205260405f205f1981540190556124d2565b909150806125cc575b1561259e5782905f6124cb565b82846125b657637e27328960e01b5f5260045260245ffd5b63177e802f60e01b5f523360045260245260445ffd5b5033841480156125fb575b8061259157505f838152600460205260409020546001600160a01b03163314612591565b505f84815260056020908152604080832033845290915290205460ff166125d7565b1561262457565b60405162461bcd60e51b8152602060048201526015602482015274151bdad95b925908191bd95cdb89dd08195e1a5cdd605a1b6044820152606490fd5b1561266857565b60405162461bcd60e51b815260206004820152601960248201527f506172656e7473206d75737420626520646966666572656e74000000000000006044820152606490fd5b90816020910312610469575180151581036104695790565b8181106126d0575050565b5f81556001016126c5565b90918060409360208452816020850152848401375f828201840152601f01601f1916010190565b60405190612711604083612302565b60078252662ab735b737bbb760c91b6020830152565b5f818152600260205260409020546001600160a01b0316908115612749575090565b637e27328960e01b5f5260045260245ffd5b6006546001600160a01b0316330361276f57565b63118cdaa760e01b5f523360045260245ffd5b823b612790575b5050505050565b604051630a85bd0160e11b81526001600160a01b0391821660048201529181166024830152604482019390935260806064820152911691602090829081906127dc90608483019061225e565b03815f865af15f9181612873575b5061283f57503d15612838573d61280081612415565b9061280e6040519283612302565b81523d5f602083013e5b805190816128335782633250574960e11b5f5260045260245ffd5b602001fd5b6060612818565b6001600160e01b03191663757a42ff60e11b0161286157505f80808080612789565b633250574960e11b5f5260045260245ffd5b9091506020813d6020116128b0575b8161288f60209383612302565b8101031261046957516001600160e01b03198116810361046957905f6127ea565b3d9150612882565b906128c282612415565b6128cf6040519182612302565b82815280926128e0601f1991612415565b0190602036910137565b805f9172184f03e93ff9f4daa797ed6e38ed64bf6a1f0160401b821015612a0f575b806d04ee2d6d415b85acef8100000000600a9210156129f4575b662386f26fc100008110156129e0575b6305f5e1008110156129cf575b6127108110156129c0575b60648110156129b2575b10156129a7575b600a602161296f600185016128b8565b938401015b5f1901916f181899199a1a9b1b9c1cb0b131b232b360811b8282061a83530480156129a257600a9091612974565b505090565b60019091019061295f565b606460029104930192612958565b6127106004910493019261294e565b6305f5e10060089104930192612943565b662386f26fc1000060109104930192612936565b6d04ee2d6d415b85acef810000000060209104930192612926565b506040915072184f03e93ff9f4daa797ed6e38ed64bf6a1f0160401b810461290c565b908151811015611276570160200190565b919091805115612b2457805160028101809111610ae55760039004600281901b906001600160fe1b03811603610ae557612a7c906128b8565b90602082019080815182019560208701908151925f83525b888110612ad65750506003939495965052510680600114612ac457600214612aba575090565b603d905f19015390565b50603d90815f19820153600119015390565b600360049199969901986001603f8b5182828260121c16870101518453828282600c1c16870101518385015382828260061c1687010151600285015316840101516003820153019497612a94565b509050604051612b35602082612302565b5f81529056fe6e1540171b6c0c960b71a7020d9f60077f6af931a8bbf590da0223dacf75c7afa2646970667358221220a3a339cf8a45e4b7bfb16abaf56be5592263e2406d0638d9e6900d9e5910d3e864736f6c634300081c00336e1540171b6c0c960b71a7020d9f60077f6af931a8bbf590da0223dacf75c7af",
  "linkReferences": {},
  "deployedLinkReferences": {},
  "immutableReferences": {
    "6992": [
      {
        "length": 32,
        "start": 1954
      },
      {
        "length": 32,
        "start": 2818
      }
    ],
    "7019": [
      {
        "length": 32,
        "start": 1736
      },
      {
        "length": 32,
        "start": 6442
      },
      {
        "length": 32,
        "start": 6769
      },
      {
        "length": 32,
        "start": 7281
      }
    ]
  },
  "inputSourceName": "project/contracts/EternamID.sol",
  "buildInfoId": "solc-0_8_28-e4e68658bcfa4cafb5ff664f3c9e501dff98f670"
}