{
  "_format": "hh3-artifact-1",
  "contractName": "EthernamID",
  "sourceName": "contracts/EthernamID.sol",
  "abi": [
    {
      "inputs": [
        {
          "internalType": "address",
          "name": "_teamWallet",
          "type": "address"
        },
        {
          "internalType": "address",
          "name": "_usdcAddress",
          "type": "address"
        }
      ],
      "stateMutability": "nonpayable",
      "type": "constructor"
    },
    {
      "inputs": [
        {
          "internalType": "address",
          "name": "sender",
          "type": "address"
        },
        {
          "internalType": "uint256",
          "name": "tokenId",
          "type": "uint256"
        },
        {
          "internalType": "address",
          "name": "owner",
          "type": "address"
        }
      ],
      "name": "ERC721IncorrectOwner",
      "type": "error"
    },
    {
      "inputs": [
        {
          "internalType": "address",
          "name": "operator",
          "type": "address"
        },
        {
          "internalType": "uint256",
          "name": "tokenId",
          "type": "uint256"
        }
      ],
      "name": "ERC721InsufficientApproval",
      "type": "error"
    },
    {
      "inputs": [
        {
          "internalType": "address",
          "name": "approver",
          "type": "address"
        }
      ],
      "name": "ERC721InvalidApprover",
      "type": "error"
    },
    {
      "inputs": [
        {
          "internalType": "address",
          "name": "operator",
          "type": "address"
        }
      ],
      "name": "ERC721InvalidOperator",
      "type": "error"
    },
    {
      "inputs": [
        {
          "internalType": "address",
          "name": "owner",
          "type": "address"
        }
      ],
      "name": "ERC721InvalidOwner",
      "type": "error"
    },
    {
      "inputs": [
        {
          "internalType": "address",
          "name": "receiver",
          "type": "address"
        }
      ],
      "name": "ERC721InvalidReceiver",
      "type": "error"
    },
    {
      "inputs": [
        {
          "internalType": "address",
          "name": "sender",
          "type": "address"
        }
      ],
      "name": "ERC721InvalidSender",
      "type": "error"
    },
    {
      "inputs": [
        {
          "internalType": "uint256",
          "name": "tokenId",
          "type": "uint256"
        }
      ],
      "name": "ERC721NonexistentToken",
      "type": "error"
    },
    {
      "inputs": [
        {
          "internalType": "address",
          "name": "owner",
          "type": "address"
        }
      ],
      "name": "OwnableInvalidOwner",
      "type": "error"
    },
    {
      "inputs": [
        {
          "internalType": "address",
          "name": "account",
          "type": "address"
        }
      ],
      "name": "OwnableUnauthorizedAccount",
      "type": "error"
    },
    {
      "anonymous": false,
      "inputs": [
        {
          "indexed": true,
          "internalType": "address",
          "name": "owner",
          "type": "address"
        },
        {
          "indexed": true,
          "internalType": "address",
          "name": "approved",
          "type": "address"
        },
        {
          "indexed": true,
          "internalType": "uint256",
          "name": "tokenId",
          "type": "uint256"
        }
      ],
      "name": "Approval",
      "type": "event"
    },
    {
      "anonymous": false,
      "inputs": [
        {
          "indexed": true,
          "internalType": "address",
          "name": "owner",
          "type": "address"
        },
        {
          "indexed": true,
          "internalType": "address",
          "name": "operator",
          "type": "address"
        },
        {
          "indexed": false,
          "internalType": "bool",
          "name": "approved",
          "type": "bool"
        }
      ],
      "name": "ApprovalForAll",
      "type": "event"
    },
    {
      "anonymous": false,
      "inputs": [
        {
          "indexed": false,
          "internalType": "address",
          "name": "Address",
          "type": "address"
        },
        {
          "indexed": false,
          "internalType": "uint256",
          "name": "balanceClaimed",
          "type": "uint256"
        }
      ],
      "name": "BalanceClaimed",
      "type": "event"
    },
    {
      "anonymous": false,
      "inputs": [
        {
          "indexed": true,
          "internalType": "address",
          "name": "previousOwner",
          "type": "address"
        },
        {
          "indexed": true,
          "internalType": "address",
          "name": "newOwner",
          "type": "address"
        }
      ],
      "name": "OwnershipTransferred",
      "type": "event"
    },
    {
      "anonymous": false,
      "inputs": [
        {
          "indexed": false,
          "internalType": "string",
          "name": "referralCode",
          "type": "string"
        },
        {
          "indexed": false,
          "internalType": "address",
          "name": "referralAddress",
          "type": "address"
        }
      ],
      "name": "ReferralRegistered",
      "type": "event"
    },
    {
      "anonymous": false,
      "inputs": [
        {
          "indexed": false,
          "internalType": "string",
          "name": "referralCode",
          "type": "string"
        },
        {
          "indexed": false,
          "internalType": "address",
          "name": "referralAddress",
          "type": "address"
        }
      ],
      "name": "ReferralRemoved",
      "type": "event"
    },
    {
      "anonymous": false,
      "inputs": [
        {
          "indexed": true,
          "internalType": "address",
          "name": "from",
          "type": "address"
        },
        {
          "indexed": true,
          "internalType": "address",
          "name": "to",
          "type": "address"
        },
        {
          "indexed": true,
          "internalType": "uint256",
          "name": "tokenId",
          "type": "uint256"
        }
      ],
      "name": "Transfer",
      "type": "event"
    },
    {
      "inputs": [
        {
          "internalType": "string",
          "name": "_refCode",
          "type": "string"
        },
        {
          "internalType": "address",
          "name": "_refAddress",
          "type": "address"
        }
      ],
      "name": "addReferral",
      "outputs": [],
      "stateMutability": "nonpayable",
      "type": "function"
    },
    {
      "inputs": [
        {
          "internalType": "address",
          "name": "",
          "type": "address"
        }
      ],
      "name": "addressToRefCode",
      "outputs": [
        {
          "internalType": "string",
          "name": "",
          "type": "string"
        }
      ],
      "stateMutability": "view",
      "type": "function"
    },
    {
      "inputs": [
        {
          "internalType": "address",
          "name": "to",
          "type": "address"
        },
        {
          "internalType": "uint256",
          "name": "tokenId",
          "type": "uint256"
        }
      ],
      "name": "approve",
      "outputs": [],
      "stateMutability": "nonpayable",
      "type": "function"
    },
    {
      "inputs": [
        {
          "internalType": "address",
          "name": "owner",
          "type": "address"
        }
      ],
      "name": "balanceOf",
      "outputs": [
        {
          "internalType": "uint256",
          "name": "",
          "type": "uint256"
        }
      ],
      "stateMutability": "view",
      "type": "function"
    },
    {
      "inputs": [],
      "name": "claimBalance",
      "outputs": [],
      "stateMutability": "nonpayable",
      "type": "function"
    },
    {
      "inputs": [
        {
          "internalType": "uint256",
          "name": "tokenId",
          "type": "uint256"
        }
      ],
      "name": "getApproved",
      "outputs": [
        {
          "internalType": "address",
          "name": "",
          "type": "address"
        }
      ],
      "stateMutability": "view",
      "type": "function"
    },
    {
      "inputs": [
        {
          "internalType": "address",
          "name": "_addr",
          "type": "address"
        }
      ],
      "name": "getBalanceToClaim",
      "outputs": [
        {
          "internalType": "uint256",
          "name": "",
          "type": "uint256"
        }
      ],
      "stateMutability": "view",
      "type": "function"
    },
    {
      "inputs": [
        {
          "internalType": "address",
          "name": "owner",
          "type": "address"
        },
        {
          "internalType": "address",
          "name": "operator",
          "type": "address"
        }
      ],
      "name": "isApprovedForAll",
      "outputs": [
        {
          "internalType": "bool",
          "name": "",
          "type": "bool"
        }
      ],
      "stateMutability": "view",
      "type": "function"
    },
    {
      "inputs": [
        {
          "internalType": "string",
          "name": "_refCode",
          "type": "string"
        }
      ],
      "name": "mintEthernamID",
      "outputs": [],
      "stateMutability": "nonpayable",
      "type": "function"
    },
    {
      "inputs": [],
      "name": "mintEthernamID",
      "outputs": [],
      "stateMutability": "nonpayable",
      "type": "function"
    },
    {
      "inputs": [],
      "name": "name",
      "outputs": [
        {
          "internalType": "string",
          "name": "",
          "type": "string"
        }
      ],
      "stateMutability": "view",
      "type": "function"
    },
    {
      "inputs": [],
      "name": "owner",
      "outputs": [
        {
          "internalType": "address",
          "name": "",
          "type": "address"
        }
      ],
      "stateMutability": "view",
      "type": "function"
    },
    {
      "inputs": [
        {
          "internalType": "uint256",
          "name": "tokenId",
          "type": "uint256"
        }
      ],
      "name": "ownerOf",
      "outputs": [
        {
          "internalType": "address",
          "name": "",
          "type": "address"
        }
      ],
      "stateMutability": "view",
      "type": "function"
    },
    {
      "inputs": [
        {
          "internalType": "string",
          "name": "",
          "type": "string"
        }
      ],
      "name": "refCodeToAddress",
      "outputs": [
        {
          "internalType": "address",
          "name": "",
          "type": "address"
        }
      ],
      "stateMutability": "view",
      "type": "function"
    },
    {
      "inputs": [
        {
          "internalType": "string",
          "name": "_refCode",
          "type": "string"
        }
      ],
      "name": "removeReferral",
      "outputs": [],
      "stateMutability": "nonpayable",
      "type": "function"
    },
    {
      "inputs": [],
      "name": "renounceOwnership",
      "outputs": [],
      "stateMutability": "nonpayable",
      "type": "function"
    },
    {
      "inputs": [
        {
          "internalType": "address",
          "name": "from",
          "type": "address"
        },
        {
          "internalType": "address",
          "name": "to",
          "type": "address"
        },
        {
          "internalType": "uint256",
          "name": "tokenId",
          "type": "uint256"
        }
      ],
      "name": "safeTransferFrom",
      "outputs": [],
      "stateMutability": "nonpayable",
      "type": "function"
    },
    {
      "inputs": [
        {
          "internalType": "address",
          "name": "from",
          "type": "address"
        },
        {
          "internalType": "address",
          "name": "to",
          "type": "address"
        },
        {
          "internalType": "uint256",
          "name": "tokenId",
          "type": "uint256"
        },
        {
          "internalType": "bytes",
          "name": "data",
          "type": "bytes"
        }
      ],
      "name": "safeTransferFrom",
      "outputs": [],
      "stateMutability": "nonpayable",
      "type": "function"
    },
    {
      "inputs": [
        {
          "internalType": "address",
          "name": "operator",
          "type": "address"
        },
        {
          "internalType": "bool",
          "name": "approved",
          "type": "bool"
        }
      ],
      "name": "setApprovalForAll",
      "outputs": [],
      "stateMutability": "nonpayable",
      "type": "function"
    },
    {
      "inputs": [
        {
          "internalType": "bytes4",
          "name": "interfaceId",
          "type": "bytes4"
        }
      ],
      "name": "supportsInterface",
      "outputs": [
        {
          "internalType": "bool",
          "name": "",
          "type": "bool"
        }
      ],
      "stateMutability": "view",
      "type": "function"
    },
    {
      "inputs": [],
      "name": "symbol",
      "outputs": [
        {
          "internalType": "string",
          "name": "",
          "type": "string"
        }
      ],
      "stateMutability": "view",
      "type": "function"
    },
    {
      "inputs": [
        {
          "internalType": "uint256",
          "name": "tokenId",
          "type": "uint256"
        }
      ],
      "name": "tokenURI",
      "outputs": [
        {
          "internalType": "string",
          "name": "",
          "type": "string"
        }
      ],
      "stateMutability": "view",
      "type": "function"
    },
    {
      "inputs": [
        {
          "internalType": "address",
          "name": "from",
          "type": "address"
        },
        {
          "internalType": "address",
          "name": "to",
          "type": "address"
        },
        {
          "internalType": "uint256",
          "name": "tokenId",
          "type": "uint256"
        }
      ],
      "name": "transferFrom",
      "outputs": [],
      "stateMutability": "nonpayable",
      "type": "function"
    },
    {
      "inputs": [
        {
          "internalType": "address",
          "name": "newOwner",
          "type": "address"
        }
      ],
      "name": "transferOwnership",
      "outputs": [],
      "stateMutability": "nonpayable",
      "type": "function"
    }
  ],
  "bytecode": "0x608060405234801561000f575f5ffd5b5060405161201538038061201583398101604081905261002e91610161565b336040518060400160405280600b81526020016a115d1a195c9b985b48125160aa1b8152506040518060400160405280600381526020016211525160ea1b815250815f908161007d919061022a565b50600161008a828261022a565b5050506001600160a01b0381166100ba57604051631e4fbdf760e01b81525f600482015260240160405180910390fd5b6100c3816100f5565b50600780546001600160a01b039384166001600160a01b031991821617909155600980549290931691161790556102e4565b600680546001600160a01b038381166001600160a01b0319831681179093556040519116919082907f8be0079c531659141344cd1fd0a4f28419497f9722a3daafe3b4186f6b6457e0905f90a35050565b80516001600160a01b038116811461015c575f5ffd5b919050565b5f5f60408385031215610172575f5ffd5b61017b83610146565b915061018960208401610146565b90509250929050565b634e487b7160e01b5f52604160045260245ffd5b600181811c908216806101ba57607f821691505b6020821081036101d857634e487b7160e01b5f52602260045260245ffd5b50919050565b601f82111561022557805f5260205f20601f840160051c810160208510156102035750805b601f840160051c820191505b81811015610222575f815560010161020f565b50505b505050565b81516001600160401b0381111561024357610243610192565b6102578161025184546101a6565b846101de565b6020601f821160018114610289575f83156102725750848201515b5f19600385901b1c1916600184901b178455610222565b5f84815260208120601f198516915b828110156102b85787850151825560209485019460019092019101610298565b50848210156102d557868401515f19600387901b60f8161c191681555b50505050600190811b01905550565b611d24806102f15f395ff3fe608060405234801561000f575f5ffd5b5060043610610153575f3560e01c8063715018a6116100bf578063b9c2f3ea11610079578063b9c2f3ea146102d7578063bdf30f39146102ea578063c87b56dd146102fd578063e985e9c514610310578063f2fde38b14610323578063ff97bced14610336575f5ffd5b8063715018a6146102885780638da5cb5b1461029057806395d89b41146102a157806397fcc7c4146102a9578063a22cb465146102b1578063b88d4fde146102c4575f5ffd5b806330509bca1161011057806330509bca146101d257806342842e0e146101fa5780636352211e1461020d57806367ca06af14610220578063686161cd1461023357806370a0823114610267575f5ffd5b806301ffc9a71461015757806306fdde031461017f578063081812fc14610194578063095ea7b3146101bf57806318506965146101d457806323b872dd146101e7575b5f5ffd5b61016a61016536600461174f565b610349565b60405190151581526020015b60405180910390f35b61018761039a565b6040516101769190611798565b6101a76101a23660046117aa565b610429565b6040516001600160a01b039091168152602001610176565b6101d26101cd3660046117dc565b610450565b005b6101876101e2366004611804565b61045f565b6101d26101f536600461181d565b6104f6565b6101d261020836600461181d565b610586565b6101a761021b3660046117aa565b6105a5565b6101d261022e366004611900565b6105af565b6101a7610241366004611900565b8051602081830181018051600a825292820191909301209152546001600160a01b031681565b61027a610275366004611804565b61086f565b604051908152602001610176565b6101d26108b4565b6006546001600160a01b03166101a7565b6101876108c5565b6101d26108d4565b6101d26102bf36600461193f565b610ae9565b6101d26102d2366004611974565b610af4565b6101d26102e5366004611900565b610b0c565b61027a6102f8366004611804565b610c93565b61018761030b3660046117aa565b610cc0565b61016a61031e3660046119eb565b610d31565b6101d2610331366004611804565b610d5e565b6101d2610344366004611a1c565b610d9b565b5f6001600160e01b031982166380ac58cd60e01b148061037957506001600160e01b03198216635b5e139f60e01b145b8061039457506301ffc9a760e01b6001600160e01b03198316145b92915050565b60605f80546103a890611a5e565b80601f01602080910402602001604051908101604052809291908181526020018280546103d490611a5e565b801561041f5780601f106103f65761010080835404028352916020019161041f565b820191905f5260205f20905b81548152906001019060200180831161040257829003601f168201915b5050505050905090565b5f61043382610f45565b505f828152600460205260409020546001600160a01b0316610394565b61045b828233610f7d565b5050565b600b6020525f90815260409020805461047790611a5e565b80601f01602080910402602001604051908101604052809291908181526020018280546104a390611a5e565b80156104ee5780601f106104c5576101008083540402835291602001916104ee565b820191905f5260205f20905b8154815290600101906020018083116104d157829003601f168201915b505050505081565b6001600160a01b03821661052457604051633250574960e11b81525f60048201526024015b60405180910390fd5b5f610530838333610f8a565b9050836001600160a01b0316816001600160a01b03161461057e576040516364283d7b60e01b81526001600160a01b038086166004830152602482018490528216604482015260640161051b565b50505050565b565b6105a083838360405180602001604052805f815250610af4565b505050565b5f61039482610f45565b5f600a826040516105c09190611aad565b908152604051908190036020019020546001600160a01b03169050806106205760405162461bcd60e51b8152602060048201526015602482015274496e76616c696420726566657272616c20636f646560581b604482015260640161051b565b607861062b3361107c565b101561066e5760405162461bcd60e51b81526020600482015260126024820152714e6f7420656e6f7567682062616c616e636560701b604482015260640161051b565b600954604051636eb1769f60e11b81523360048201523060248201526078916001600160a01b03169063dd62ed3e90604401602060405180830381865afa1580156106bb573d5f5f3e3d5ffd5b505050506040513d601f19601f820116820180604052508101906106df9190611ab8565b10156107285760405162461bcd60e51b8152602060048201526018602482015277139bdd08195b9bdd59da081554d110c8185c1c1c9bdd995960421b604482015260640161051b565b6009546040516323b872dd60e01b8152336004820152306024820152607860448201526001600160a01b03909116906323b872dd906064016020604051808303815f875af115801561077c573d5f5f3e3d5ffd5b505050506040513d601f19601f820116820180604052508101906107a09190611acf565b6107e35760405162461bcd60e51b81526020600482015260146024820152731554d110c81d1c985b9cd9995c8819985a5b195960621b604482015260640161051b565b6008546107f033826110e8565b6107fc60146078611afe565b6007546001600160a01b03165f908152600c602052604081208054909190610825908490611b11565b90915550506001600160a01b0382165f908152600c60205260408120805460149290610852908490611b11565b9091555050600880545f9061086690611b24565b90915550505050565b5f6001600160a01b038216610899576040516322718ad960e21b81525f600482015260240161051b565b506001600160a01b03165f9081526003602052604090205490565b6108bc611101565b6105845f61112e565b6060600180546103a890611a5e565b60786108df3361107c565b10156109225760405162461bcd60e51b81526020600482015260126024820152714e6f7420656e6f7567682062616c616e636560701b604482015260640161051b565b600954604051636eb1769f60e11b81523360048201523060248201526078916001600160a01b03169063dd62ed3e90604401602060405180830381865afa15801561096f573d5f5f3e3d5ffd5b505050506040513d601f19601f820116820180604052508101906109939190611ab8565b10156109dc5760405162461bcd60e51b8152602060048201526018602482015277139bdd08195b9bdd59da081554d110c8185c1c1c9bdd995960421b604482015260640161051b565b6009546040516323b872dd60e01b8152336004820152306024820152607860448201526001600160a01b03909116906323b872dd906064016020604051808303815f875af1158015610a30573d5f5f3e3d5ffd5b505050506040513d601f19601f82011682018060405250810190610a549190611acf565b610a975760405162461bcd60e51b81526020600482015260146024820152731554d110c81d1c985b9cd9995c8819985a5b195960621b604482015260640161051b565b600854610aa433826110e8565b6007546001600160a01b03165f908152600c60205260408120805460789290610ace908490611b11565b9091555050600880545f90610ae290611b24565b9091555050565b61045b33838361117f565b610aff8484846104f6565b61057e338585858561121d565b610b14611101565b5f600a82604051610b259190611aad565b908152604051908190036020019020546001600160a01b0316905080610b8d5760405162461bcd60e51b815260206004820181905260248201527f5468697320726566657272616c20636f646520646f65736e2774206578697374604482015260640161051b565b6001600160a01b0381165f908152600c602052604090205415610c0d5760405162461bcd60e51b815260206004820152603260248201527f526566657272616c206861732062616c616e636520746f20636c61696d2c20796044820152711bdd4818d85b89dd081c995b5bdd99481a5d60721b606482015260840161051b565b7f182496147026dbd85efd7e563c02b3e52f2109f82132cade8074691ea1232fa58282604051610c3e929190611b3c565b60405180910390a1600a82604051610c569190611aad565b908152604080516020928190038301902080546001600160a01b03191690556001600160a01b0383165f908152600b909252812061045b916116f0565b6001600160a01b0381165f908152600c6020526040812054610cb790600a90611b65565b60061892915050565b6060610ccb82610f45565b505f610ce160408051602081019091525f815290565b90505f815111610cff5760405180602001604052805f815250610d2a565b80610d0984611345565b604051602001610d1a929190611b84565b6040516020818303038152906040525b9392505050565b6001600160a01b039182165f90815260056020908152604080832093909416825291909152205460ff1690565b610d66611101565b6001600160a01b038116610d8f57604051631e4fbdf760e01b81525f600482015260240161051b565b610d988161112e565b50565b610da3611101565b5f6001600160a01b0316600a83604051610dbd9190611aad565b908152604051908190036020019020546001600160a01b031614610e1c5760405162461bcd60e51b8152602060048201526016602482015275436f646520697320616c726561647920696e2075736560501b604482015260640161051b565b6001600160a01b038116610e645760405162461bcd60e51b815260206004820152600f60248201526e496e76616c6964206164647265737360881b604482015260640161051b565b5f825111610eb45760405162461bcd60e51b815260206004820152601d60248201527f526566657272616c20636f64652063616e6e6f7420626520656d707479000000604482015260640161051b565b80600a83604051610ec59190611aad565b908152604080516020928190038301902080546001600160a01b0319166001600160a01b039485161790559183165f908152600b90915220610f078382611bdc565b507f6c43371d6cf090f194c7d77085b3715e22eb5254874fc6d99aa31ebdb733ae598282604051610f39929190611b3c565b60405180910390a15050565b5f818152600260205260408120546001600160a01b03168061039457604051637e27328960e01b81526004810184905260240161051b565b6105a083838360016113d5565b5f828152600260205260408120546001600160a01b0390811690831615610fb657610fb68184866114d9565b6001600160a01b03811615610ff057610fd15f855f5f6113d5565b6001600160a01b0381165f90815260036020526040902080545f190190555b6001600160a01b0385161561101e576001600160a01b0385165f908152600360205260409020805460010190555b5f8481526002602052604080822080546001600160a01b0319166001600160a01b0389811691821790925591518793918516917fddf252ad1be2c89b69c2b068fc378daa952ba7f163c4a11628f55a4df523b3ef91a4949350505050565b6009546040516370a0823160e01b81526001600160a01b0383811660048301525f9216906370a0823190602401602060405180830381865afa1580156110c4573d5f5f3e3d5ffd5b505050506040513d601f19601f820116820180604052508101906103949190611ab8565b61045b828260405180602001604052805f81525061153d565b6006546001600160a01b031633146105845760405163118cdaa760e01b815233600482015260240161051b565b600680546001600160a01b038381166001600160a01b0319831681179093556040519116919082907f8be0079c531659141344cd1fd0a4f28419497f9722a3daafe3b4186f6b6457e0905f90a35050565b6001600160a01b0382166111b157604051630b61174360e31b81526001600160a01b038316600482015260240161051b565b6001600160a01b038381165f81815260056020908152604080832094871680845294825291829020805460ff191686151590811790915591519182527f17307eab39ab6107e8899845ad3d59bd9653f200f220920489ca2b5937696c31910160405180910390a3505050565b6001600160a01b0383163b1561133e57604051630a85bd0160e11b81526001600160a01b0384169063150b7a029061125f908890889087908790600401611c97565b6020604051808303815f875af1925050508015611299575060408051601f3d908101601f1916820190925261129691810190611cd3565b60015b611300573d8080156112c6576040519150601f19603f3d011682016040523d82523d5f602084013e6112cb565b606091505b5080515f036112f857604051633250574960e11b81526001600160a01b038516600482015260240161051b565b805160208201fd5b6001600160e01b03198116630a85bd0160e11b1461133c57604051633250574960e11b81526001600160a01b038516600482015260240161051b565b505b5050505050565b60605f61135183611554565b60010190505f8167ffffffffffffffff81111561137057611370611857565b6040519080825280601f01601f19166020018201604052801561139a576020820181803683370190505b5090508181016020015b5f19016f181899199a1a9b1b9c1cb0b131b232b360811b600a86061a8153600a85049450846113a457509392505050565b80806113e957506001600160a01b03821615155b156114aa575f6113f884610f45565b90506001600160a01b038316158015906114245750826001600160a01b0316816001600160a01b031614155b801561143757506114358184610d31565b155b156114605760405163a9fbf51f60e01b81526001600160a01b038416600482015260240161051b565b81156114a85783856001600160a01b0316826001600160a01b03167f8c5be1e5ebec7d5bd14f71427d1e84f3dd0314c0f7b2291e5b200ac8c7c3b92560405160405180910390a45b505b50505f90815260046020526040902080546001600160a01b0319166001600160a01b0392909216919091179055565b6114e483838361162b565b6105a0576001600160a01b03831661151257604051637e27328960e01b81526004810182905260240161051b565b60405163177e802f60e01b81526001600160a01b03831660048201526024810182905260440161051b565b611547838361168f565b6105a0335f85858561121d565b5f8072184f03e93ff9f4daa797ed6e38ed64bf6a1f0160401b83106115925772184f03e93ff9f4daa797ed6e38ed64bf6a1f0160401b830492506040015b6d04ee2d6d415b85acef810000000083106115be576d04ee2d6d415b85acef8100000000830492506020015b662386f26fc1000083106115dc57662386f26fc10000830492506010015b6305f5e10083106115f4576305f5e100830492506008015b612710831061160857612710830492506004015b6064831061161a576064830492506002015b600a83106103945760010192915050565b5f6001600160a01b038316158015906116875750826001600160a01b0316846001600160a01b0316148061166457506116648484610d31565b8061168757505f828152600460205260409020546001600160a01b038481169116145b949350505050565b6001600160a01b0382166116b857604051633250574960e11b81525f600482015260240161051b565b5f6116c483835f610f8a565b90506001600160a01b038116156105a0576040516339e3563760e11b81525f600482015260240161051b565b5080546116fc90611a5e565b5f825580601f1061170b575050565b601f0160209004905f5260205f2090810190610d9891905b80821115611736575f8155600101611723565b5090565b6001600160e01b031981168114610d98575f5ffd5b5f6020828403121561175f575f5ffd5b8135610d2a8161173a565b5f81518084528060208401602086015e5f602082860101526020601f19601f83011685010191505092915050565b602081525f610d2a602083018461176a565b5f602082840312156117ba575f5ffd5b5035919050565b80356001600160a01b03811681146117d7575f5ffd5b919050565b5f5f604083850312156117ed575f5ffd5b6117f6836117c1565b946020939093013593505050565b5f60208284031215611814575f5ffd5b610d2a826117c1565b5f5f5f6060848603121561182f575f5ffd5b611838846117c1565b9250611846602085016117c1565b929592945050506040919091013590565b634e487b7160e01b5f52604160045260245ffd5b5f5f67ffffffffffffffff84111561188557611885611857565b50604051601f19601f85018116603f0116810181811067ffffffffffffffff821117156118b4576118b4611857565b6040528381529050808284018510156118cb575f5ffd5b838360208301375f60208583010152509392505050565b5f82601f8301126118f1575f5ffd5b610d2a8383356020850161186b565b5f60208284031215611910575f5ffd5b813567ffffffffffffffff811115611926575f5ffd5b611687848285016118e2565b8015158114610d98575f5ffd5b5f5f60408385031215611950575f5ffd5b611959836117c1565b9150602083013561196981611932565b809150509250929050565b5f5f5f5f60808587031215611987575f5ffd5b611990856117c1565b935061199e602086016117c1565b925060408501359150606085013567ffffffffffffffff8111156119c0575f5ffd5b8501601f810187136119d0575f5ffd5b6119df8782356020840161186b565b91505092959194509250565b5f5f604083850312156119fc575f5ffd5b611a05836117c1565b9150611a13602084016117c1565b90509250929050565b5f5f60408385031215611a2d575f5ffd5b823567ffffffffffffffff811115611a43575f5ffd5b611a4f858286016118e2565b925050611a13602084016117c1565b600181811c90821680611a7257607f821691505b602082108103611a9057634e487b7160e01b5f52602260045260245ffd5b50919050565b5f81518060208401855e5f93019283525090919050565b5f610d2a8284611a96565b5f60208284031215611ac8575f5ffd5b5051919050565b5f60208284031215611adf575f5ffd5b8151610d2a81611932565b634e487b7160e01b5f52601160045260245ffd5b8181038181111561039457610394611aea565b8082018082111561039457610394611aea565b5f60018201611b3557611b35611aea565b5060010190565b604081525f611b4e604083018561176a565b905060018060a01b03831660208301529392505050565b5f82611b7f57634e487b7160e01b5f52601260045260245ffd5b500490565b5f611687611b928386611a96565b84611a96565b601f8211156105a057805f5260205f20601f840160051c81016020851015611bbd5750805b601f840160051c820191505b8181101561133e575f8155600101611bc9565b815167ffffffffffffffff811115611bf657611bf6611857565b611c0a81611c048454611a5e565b84611b98565b6020601f821160018114611c3c575f8315611c255750848201515b5f19600385901b1c1916600184901b17845561133e565b5f84815260208120601f198516915b82811015611c6b5787850151825560209485019460019092019101611c4b565b5084821015611c8857868401515f19600387901b60f8161c191681555b50505050600190811b01905550565b6001600160a01b03858116825284166020820152604081018390526080606082018190525f90611cc99083018461176a565b9695505050505050565b5f60208284031215611ce3575f5ffd5b8151610d2a8161173a56fea264697066735822122058cc2e84749511b5a34b51f8f41e74b046abe4a17621896d8535851c6cac8fb664736f6c634300081c0033",
  "linkReferences": {},
  "deployedLinkReferences": {},
  "immutableReferences": {},
  "inputSourceName": "project/contracts/EthernamID.sol",
  "buildInfoId": "solc-0_8_28-b62557644c843c377662de4c79e66de130503fbc"
}